{
  "contractName": "FarmToken",
  "abi": [
    {
      "inputs": [],
      "stateMutability": "nonpayable",
      "type": "constructor"
    },
    {
      "anonymous": false,
      "inputs": [
        {
          "indexed": true,
          "internalType": "address",
          "name": "owner",
          "type": "address"
        },
        {
          "indexed": true,
          "internalType": "address",
          "name": "spender",
          "type": "address"
        },
        {
          "indexed": false,
          "internalType": "uint256",
          "name": "value",
          "type": "uint256"
        }
      ],
      "name": "Approval",
      "type": "event"
    },
    {
      "anonymous": false,
      "inputs": [
        {
          "indexed": true,
          "internalType": "address",
          "name": "previousOwner",
          "type": "address"
        },
        {
          "indexed": true,
          "internalType": "address",
          "name": "newOwner",
          "type": "address"
        }
      ],
      "name": "OwnershipTransferred",
      "type": "event"
    },
    {
      "anonymous": false,
      "inputs": [
        {
          "indexed": false,
          "internalType": "address",
          "name": "account",
          "type": "address"
        }
      ],
      "name": "Paused",
      "type": "event"
    },
    {
      "anonymous": false,
      "inputs": [
        {
          "indexed": true,
          "internalType": "address",
          "name": "user",
          "type": "address"
        },
        {
          "indexed": false,
          "internalType": "uint256",
          "name": "amount",
          "type": "uint256"
        }
      ],
      "name": "TokensRedeemed",
      "type": "event"
    },
    {
      "anonymous": false,
      "inputs": [
        {
          "indexed": true,
          "internalType": "address",
          "name": "farmer",
          "type": "address"
        },
        {
          "indexed": false,
          "internalType": "uint256",
          "name": "amount",
          "type": "uint256"
        },
        {
          "indexed": false,
          "internalType": "string",
          "name": "reason",
          "type": "string"
        }
      ],
      "name": "TokensRewarded",
      "type": "event"
    },
    {
      "anonymous": false,
      "inputs": [
        {
          "indexed": true,
          "internalType": "address",
          "name": "user",
          "type": "address"
        },
        {
          "indexed": false,
          "internalType": "uint256",
          "name": "amount",
          "type": "uint256"
        },
        {
          "indexed": false,
          "internalType": "string",
          "name": "reason",
          "type": "string"
        }
      ],
      "name": "TokensSpent",
      "type": "event"
    },
    {
      "anonymous": false,
      "inputs": [
        {
          "indexed": true,
          "internalType": "address",
          "name": "from",
          "type": "address"
        },
        {
          "indexed": true,
          "internalType": "address",
          "name": "to",
          "type": "address"
        },
        {
          "indexed": false,
          "internalType": "uint256",
          "name": "value",
          "type": "uint256"
        }
      ],
      "name": "Transfer",
      "type": "event"
    },
    {
      "anonymous": false,
      "inputs": [
        {
          "indexed": false,
          "internalType": "address",
          "name": "account",
          "type": "address"
        }
      ],
      "name": "Unpaused",
      "type": "event"
    },
    {
      "inputs": [],
      "name": "PRODUCT_REWARD_RATE",
      "outputs": [
        {
          "internalType": "uint256",
          "name": "",
          "type": "uint256"
        }
      ],
      "stateMutability": "view",
      "type": "function",
      "constant": true
    },
    {
      "inputs": [],
      "name": "RATING_REWARD_RATE",
      "outputs": [
        {
          "internalType": "uint256",
          "name": "",
          "type": "uint256"
        }
      ],
      "stateMutability": "view",
      "type": "function",
      "constant": true
    },
    {
      "inputs": [
        {
          "internalType": "address",
          "name": "owner",
          "type": "address"
        },
        {
          "internalType": "address",
          "name": "spender",
          "type": "address"
        }
      ],
      "name": "allowance",
      "outputs": [
        {
          "internalType": "uint256",
          "name": "",
          "type": "uint256"
        }
      ],
      "stateMutability": "view",
      "type": "function",
      "constant": true
    },
    {
      "inputs": [
        {
          "internalType": "address",
          "name": "spender",
          "type": "address"
        },
        {
          "internalType": "uint256",
          "name": "amount",
          "type": "uint256"
        }
      ],
      "name": "approve",
      "outputs": [
        {
          "internalType": "bool",
          "name": "",
          "type": "bool"
        }
      ],
      "stateMutability": "nonpayable",
      "type": "function"
    },
    {
      "inputs": [
        {
          "internalType": "address",
          "name": "account",
          "type": "address"
        }
      ],
      "name": "balanceOf",
      "outputs": [
        {
          "internalType": "uint256",
          "name": "",
          "type": "uint256"
        }
      ],
      "stateMutability": "view",
      "type": "function",
      "constant": true
    },
    {
      "inputs": [],
      "name": "decimals",
      "outputs": [
        {
          "internalType": "uint8",
          "name": "",
          "type": "uint8"
        }
      ],
      "stateMutability": "view",
      "type": "function",
      "constant": true
    },
    {
      "inputs": [
        {
          "internalType": "address",
          "name": "spender",
          "type": "address"
        },
        {
          "internalType": "uint256",
          "name": "subtractedValue",
          "type": "uint256"
        }
      ],
      "name": "decreaseAllowance",
      "outputs": [
        {
          "internalType": "bool",
          "name": "",
          "type": "bool"
        }
      ],
      "stateMutability": "nonpayable",
      "type": "function"
    },
    {
      "inputs": [
        {
          "internalType": "address",
          "name": "",
          "type": "address"
        }
      ],
      "name": "farmerRatings",
      "outputs": [
        {
          "internalType": "uint256",
          "name": "",
          "type": "uint256"
        }
      ],
      "stateMutability": "view",
      "type": "function",
      "constant": true
    },
    {
      "inputs": [
        {
          "internalType": "address",
          "name": "",
          "type": "address"
        }
      ],
      "name": "farmerTotalRatings",
      "outputs": [
        {
          "internalType": "uint256",
          "name": "",
          "type": "uint256"
        }
      ],
      "stateMutability": "view",
      "type": "function",
      "constant": true
    },
    {
      "inputs": [
        {
          "internalType": "address",
          "name": "spender",
          "type": "address"
        },
        {
          "internalType": "uint256",
          "name": "addedValue",
          "type": "uint256"
        }
      ],
      "name": "increaseAllowance",
      "outputs": [
        {
          "internalType": "bool",
          "name": "",
          "type": "bool"
        }
      ],
      "stateMutability": "nonpayable",
      "type": "function"
    },
    {
      "inputs": [],
      "name": "name",
      "outputs": [
        {
          "internalType": "string",
          "name": "",
          "type": "string"
        }
      ],
      "stateMutability": "view",
      "type": "function",
      "constant": true
    },
    {
      "inputs": [],
      "name": "owner",
      "outputs": [
        {
          "internalType": "address",
          "name": "",
          "type": "address"
        }
      ],
      "stateMutability": "view",
      "type": "function",
      "constant": true
    },
    {
      "inputs": [],
      "name": "paused",
      "outputs": [
        {
          "internalType": "bool",
          "name": "",
          "type": "bool"
        }
      ],
      "stateMutability": "view",
      "type": "function",
      "constant": true
    },
    {
      "inputs": [],
      "name": "renounceOwnership",
      "outputs": [],
      "stateMutability": "nonpayable",
      "type": "function"
    },
    {
      "inputs": [],
      "name": "symbol",
      "outputs": [
        {
          "internalType": "string",
          "name": "",
          "type": "string"
        }
      ],
      "stateMutability": "view",
      "type": "function",
      "constant": true
    },
    {
      "inputs": [],
      "name": "totalSupply",
      "outputs": [
        {
          "internalType": "uint256",
          "name": "",
          "type": "uint256"
        }
      ],
      "stateMutability": "view",
      "type": "function",
      "constant": true
    },
    {
      "inputs": [
        {
          "internalType": "address",
          "name": "to",
          "type": "address"
        },
        {
          "internalType": "uint256",
          "name": "amount",
          "type": "uint256"
        }
      ],
      "name": "transfer",
      "outputs": [
        {
          "internalType": "bool",
          "name": "",
          "type": "bool"
        }
      ],
      "stateMutability": "nonpayable",
      "type": "function"
    },
    {
      "inputs": [
        {
          "internalType": "address",
          "name": "from",
          "type": "address"
        },
        {
          "internalType": "address",
          "name": "to",
          "type": "address"
        },
        {
          "internalType": "uint256",
          "name": "amount",
          "type": "uint256"
        }
      ],
      "name": "transferFrom",
      "outputs": [
        {
          "internalType": "bool",
          "name": "",
          "type": "bool"
        }
      ],
      "stateMutability": "nonpayable",
      "type": "function"
    },
    {
      "inputs": [
        {
          "internalType": "address",
          "name": "newOwner",
          "type": "address"
        }
      ],
      "name": "transferOwnership",
      "outputs": [],
      "stateMutability": "nonpayable",
      "type": "function"
    },
    {
      "inputs": [
        {
          "internalType": "address",
          "name": "farmer",
          "type": "address"
        },
        {
          "internalType": "uint256",
          "name": "rating",
          "type": "uint256"
        }
      ],
      "name": "rewardFarmerForRating",
      "outputs": [],
      "stateMutability": "nonpayable",
      "type": "function"
    },
    {
      "inputs": [
        {
          "internalType": "address",
          "name": "farmer",
          "type": "address"
        },
        {
          "internalType": "string",
          "name": "productName",
          "type": "string"
        }
      ],
      "name": "rewardFarmerForProduct",
      "outputs": [],
      "stateMutability": "nonpayable",
      "type": "function"
    },
    {
      "inputs": [
        {
          "internalType": "uint256",
          "name": "amount",
          "type": "uint256"
        },
        {
          "internalType": "string",
          "name": "reason",
          "type": "string"
        }
      ],
      "name": "spendTokens",
      "outputs": [],
      "stateMutability": "nonpayable",
      "type": "function"
    },
    {
      "inputs": [
        {
          "internalType": "uint256",
          "name": "amount",
          "type": "uint256"
        }
      ],
      "name": "redeemTokens",
      "outputs": [],
      "stateMutability": "nonpayable",
      "type": "function"
    },
    {
      "inputs": [
        {
          "internalType": "address",
          "name": "farmer",
          "type": "address"
        }
      ],
      "name": "getFarmerAverageRating",
      "outputs": [
        {
          "internalType": "uint256",
          "name": "",
          "type": "uint256"
        }
      ],
      "stateMutability": "view",
      "type": "function",
      "constant": true
    },
    {
      "inputs": [],
      "name": "pause",
      "outputs": [],
      "stateMutability": "nonpayable",
      "type": "function"
    },
    {
      "inputs": [],
      "name": "unpause",
      "outputs": [],
      "stateMutability": "nonpayable",
      "type": "function"
    }
  ],
  "bytecode": "0x60806040523480156200001157600080fd5b50604051806040016040528060098152602001682330b936aa37b5b2b760b91b815250604051806040016040528060048152602001634641524d60e01b815250816003908162000062919062000300565b50600462000071828262000300565b5050506200008e62000088620000c960201b60201c565b620000cd565b6005805460ff60a01b19169055620000c333620000ae6012600a620004e1565b620000bd90620f4240620004f9565b6200011f565b62000529565b3390565b600580546001600160a01b038381166001600160a01b0319831681179093556040519116919082907f8be0079c531659141344cd1fd0a4f28419497f9722a3daafe3b4186f6b6457e090600090a35050565b6001600160a01b0382166200017b5760405162461bcd60e51b815260206004820152601f60248201527f45524332303a206d696e7420746f20746865207a65726f20616464726573730060448201526064015b60405180910390fd5b6200018960008383620001f4565b80600260008282546200019d919062000513565b90915550506001600160a01b038216600081815260208181526040808320805486019055518481527fddf252ad1be2c89b69c2b068fc378daa952ba7f163c4a11628f55a4df523b3ef910160405180910390a35050565b62000208600554600160a01b900460ff1690565b15620002575760405162461bcd60e51b815260206004820152601560248201527f546f6b656e207472616e73666572207061757365640000000000000000000000604482015260640162000172565b505050565b634e487b7160e01b600052604160045260246000fd5b600181811c908216806200028757607f821691505b602082108103620002a857634e487b7160e01b600052602260045260246000fd5b50919050565b601f8211156200025757600081815260208120601f850160051c81016020861015620002d75750805b601f850160051c820191505b81811015620002f857828155600101620002e3565b505050505050565b81516001600160401b038111156200031c576200031c6200025c565b62000334816200032d845462000272565b84620002ae565b602080601f8311600181146200036c5760008415620003535750858301515b600019600386901b1c1916600185901b178555620002f8565b600085815260208120601f198616915b828110156200039d578886015182559484019460019091019084016200037c565b5085821015620003bc5787850151600019600388901b60f8161c191681555b5050505050600190811b01905550565b634e487b7160e01b600052601160045260246000fd5b600181815b8085111562000423578160001904821115620004075762000407620003cc565b808516156200041557918102915b93841c9390800290620003e7565b509250929050565b6000826200043c57506001620004db565b816200044b57506000620004db565b81600181146200046457600281146200046f576200048f565b6001915050620004db565b60ff841115620004835762000483620003cc565b50506001821b620004db565b5060208310610133831016604e8410600b8410161715620004b4575081810a620004db565b620004c08383620003e2565b8060001904821115620004d757620004d7620003cc565b0290505b92915050565b6000620004f260ff8416836200042b565b9392505050565b8082028115828204841417620004db57620004db620003cc565b80820180821115620004db57620004db620003cc565b61165980620005396000396000f3fe608060405234801561001057600080fd5b506004361061018e5760003560e01c80638456cb59116100de578063b75a908111610097578063e76ef05211610071578063e76ef05214610351578063edd1504514610364578063f2fde38b1461036c578063f89fe22f1461037f57600080fd5b8063b75a90811461030b578063c673e3a81461031e578063dd62ed3e1461033e57600080fd5b80638456cb59146102a75780638da5cb5b146102af57806395d89b41146102ca578063a457c2d7146102d2578063a6e158f8146102e5578063a9059cbb146102f857600080fd5b8063395093511161014b57806359563cdf1161012557806359563cdf146102515780635c975abb1461026457806370a0823114610276578063715018a61461029f57600080fd5b806339509351146102145780633e2ce4b3146102275780633f4ba83a1461024757600080fd5b806306fdde0314610193578063095ea7b3146101b157806316a780a3146101d457806318160ddd146101ea57806323b872dd146101f2578063313ce56714610205575b600080fd5b61019b610392565b6040516101a8919061121c565b60405180910390f35b6101c46101bf36600461124b565b610424565b60405190151581526020016101a8565b6101dc600a81565b6040519081526020016101a8565b6002546101dc565b6101c4610200366004611275565b61043e565b604051601281526020016101a8565b6101c461022236600461124b565b610462565b6101dc6102353660046112b1565b60076020526000908152604090205481565b61024f610484565b005b61024f61025f36600461136f565b610496565b600554600160a01b900460ff166101c4565b6101dc6102843660046112b1565b6001600160a01b031660009081526020819052604090205490565b61024f6105a3565b61024f6105b5565b6005546040516001600160a01b0390911681526020016101a8565b61019b6105c5565b6101c46102e036600461124b565b6105d4565b61024f6102f33660046113b6565b61064f565b6101c461030636600461124b565b61075a565b61024f6103193660046113cf565b610768565b6101dc61032c3660046112b1565b60066020526000908152604090205481565b6101dc61034c366004611407565b610863565b61024f61035f36600461124b565b61088e565b6101dc603281565b61024f61037a3660046112b1565b610a43565b6101dc61038d3660046112b1565b610abc565b6060600380546103a19061143a565b80601f01602080910402602001604051908101604052809291908181526020018280546103cd9061143a565b801561041a5780601f106103ef5761010080835404028352916020019161041a565b820191906000526020600020905b8154815290600101906020018083116103fd57829003601f168201915b5050505050905090565b600033610432818585610b10565b60019150505b92915050565b60003361044c858285610c35565b610457858585610caf565b506001949350505050565b6000336104328185856104758383610863565b61047f919061148a565b610b10565b61048c610e5e565b610494610eb8565b565b61049e610f0d565b600082116104f35760405162461bcd60e51b815260206004820152601d60248201527f416d6f756e74206d7573742062652067726561746572207468616e203000000060448201526064015b60405180910390fd5b336000908152602081905260409020548211156105525760405162461bcd60e51b815260206004820152601a60248201527f496e73756666696369656e7420746f6b656e2062616c616e636500000000000060448201526064016104ea565b61055c3383610f5a565b336001600160a01b03167f1aecf3017f715b90945c9b7c4a1ed780e6ec69be2d7650296dc1cf6e28113729838360405161059792919061149d565b60405180910390a25050565b6105ab610e5e565b6104946000611095565b6105bd610e5e565b6104946110e7565b6060600480546103a19061143a565b600033816105e28286610863565b9050838110156106425760405162461bcd60e51b815260206004820152602560248201527f45524332303a2064656372656173656420616c6c6f77616e63652062656c6f77604482015264207a65726f60d81b60648201526084016104ea565b6104578286868403610b10565b610657610f0d565b600081116106a75760405162461bcd60e51b815260206004820152601d60248201527f416d6f756e74206d7573742062652067726561746572207468616e203000000060448201526064016104ea565b336000908152602081905260409020548111156107065760405162461bcd60e51b815260206004820152601a60248201527f496e73756666696369656e7420746f6b656e2062616c616e636500000000000060448201526064016104ea565b6107223361071c6005546001600160a01b031690565b83610caf565b60405181815233907fcdd4c59de26b3f8623e6012ab9bc32a995eda3452d89c941fc8af6b74276ad389060200160405180910390a250565b600033610432818585610caf565b610770610e5e565b610778610f0d565b6001600160a01b0382166107c75760405162461bcd60e51b8152602060048201526016602482015275496e76616c6964206661726d6572206164647265737360501b60448201526064016104ea565b60006107d56012600a6115a2565b6107e09060326115b1565b90506107fe6107f76005546001600160a01b031690565b8483610caf565b826001600160a01b03167fb969d134776a7f04430dbbcac4e68734b1c6c5adcecbf68c3cbe6a9a4f2c8a1d828460405160200161083b91906115c8565b60408051601f1981840301815290829052610856929161149d565b60405180910390a2505050565b6001600160a01b03918216600090815260016020908152604080832093909416825291909152205490565b610896610e5e565b61089e610f0d565b600181101580156108b0575060058111155b6108fc5760405162461bcd60e51b815260206004820152601e60248201527f526174696e67206d757374206265206265747765656e203120616e642035000060448201526064016104ea565b6001600160a01b03821661094b5760405162461bcd60e51b8152602060048201526016602482015275496e76616c6964206661726d6572206164647265737360501b60448201526064016104ea565b60006109596012600a6115a2565b610964600a846115b1565b61096e91906115b1565b6001600160a01b03841660009081526006602052604081208054929350849290919061099b90849061148a565b90915550506001600160a01b03831660009081526007602052604081208054600192906109c990849061148a565b90915550506005546109e3906001600160a01b03166107f7565b826001600160a01b03167fb969d134776a7f04430dbbcac4e68734b1c6c5adcecbf68c3cbe6a9a4f2c8a1d82604051610856918152604060208201819052600d908201526c14985d1a5b99c81c995dd85c99609a1b606082015260800190565b610a4b610e5e565b6001600160a01b038116610ab05760405162461bcd60e51b815260206004820152602660248201527f4f776e61626c653a206e6577206f776e657220697320746865207a65726f206160448201526564647265737360d01b60648201526084016104ea565b610ab981611095565b50565b6001600160a01b038116600090815260076020526040812054808203610ae55750600092915050565b6001600160a01b038316600090815260066020526040902054610b09908290611601565b9392505050565b6001600160a01b038316610b725760405162461bcd60e51b8152602060048201526024808201527f45524332303a20617070726f76652066726f6d20746865207a65726f206164646044820152637265737360e01b60648201526084016104ea565b6001600160a01b038216610bd35760405162461bcd60e51b815260206004820152602260248201527f45524332303a20617070726f766520746f20746865207a65726f206164647265604482015261737360f01b60648201526084016104ea565b6001600160a01b0383811660008181526001602090815260408083209487168084529482529182902085905590518481527f8c5be1e5ebec7d5bd14f71427d1e84f3dd0314c0f7b2291e5b200ac8c7c3b92591015b60405180910390a3505050565b6000610c418484610863565b90506000198114610ca95781811015610c9c5760405162461bcd60e51b815260206004820152601d60248201527f45524332303a20696e73756666696369656e7420616c6c6f77616e636500000060448201526064016104ea565b610ca98484848403610b10565b50505050565b6001600160a01b038316610d135760405162461bcd60e51b815260206004820152602560248201527f45524332303a207472616e736665722066726f6d20746865207a65726f206164604482015264647265737360d81b60648201526084016104ea565b6001600160a01b038216610d755760405162461bcd60e51b815260206004820152602360248201527f45524332303a207472616e7366657220746f20746865207a65726f206164647260448201526265737360e81b60648201526084016104ea565b610d8083838361112a565b6001600160a01b03831660009081526020819052604090205481811015610df85760405162461bcd60e51b815260206004820152602660248201527f45524332303a207472616e7366657220616d6f756e7420657863656564732062604482015265616c616e636560d01b60648201526084016104ea565b6001600160a01b03848116600081815260208181526040808320878703905593871680835291849020805487019055925185815290927fddf252ad1be2c89b69c2b068fc378daa952ba7f163c4a11628f55a4df523b3ef910160405180910390a3610ca9565b6005546001600160a01b031633146104945760405162461bcd60e51b815260206004820181905260248201527f4f776e61626c653a2063616c6c6572206973206e6f7420746865206f776e657260448201526064016104ea565b610ec061117c565b6005805460ff60a01b191690557f5db9ee0a495bf2e6ff9c91a7834c1ba4fdd244a5e8aa4e537bd38aeae4b073aa335b6040516001600160a01b03909116815260200160405180910390a1565b600554600160a01b900460ff16156104945760405162461bcd60e51b815260206004820152601060248201526f14185d5cd8589b194e881c185d5cd95960821b60448201526064016104ea565b6001600160a01b038216610fba5760405162461bcd60e51b815260206004820152602160248201527f45524332303a206275726e2066726f6d20746865207a65726f206164647265736044820152607360f81b60648201526084016104ea565b610fc68260008361112a565b6001600160a01b0382166000908152602081905260409020548181101561103a5760405162461bcd60e51b815260206004820152602260248201527f45524332303a206275726e20616d6f756e7420657863656564732062616c616e604482015261636560f01b60648201526084016104ea565b6001600160a01b0383166000818152602081815260408083208686039055600280548790039055518581529192917fddf252ad1be2c89b69c2b068fc378daa952ba7f163c4a11628f55a4df523b3ef9101610c28565b505050565b600580546001600160a01b038381166001600160a01b0319831681179093556040519116919082907f8be0079c531659141344cd1fd0a4f28419497f9722a3daafe3b4186f6b6457e090600090a35050565b6110ef610f0d565b6005805460ff60a01b1916600160a01b1790557f62e78cea01bee320cd4e420270b5ea74000d11b0c9f74754ebdbfc544b05a258610ef03390565b600554600160a01b900460ff16156110905760405162461bcd60e51b8152602060048201526015602482015274151bdad95b881d1c985b9cd9995c881c185d5cd959605a1b60448201526064016104ea565b600554600160a01b900460ff166104945760405162461bcd60e51b815260206004820152601460248201527314185d5cd8589b194e881b9bdd081c185d5cd95960621b60448201526064016104ea565b60005b838110156111e75781810151838201526020016111cf565b50506000910152565b600081518084526112088160208601602086016111cc565b601f01601f19169290920160200192915050565b602081526000610b0960208301846111f0565b80356001600160a01b038116811461124657600080fd5b919050565b6000806040838503121561125e57600080fd5b6112678361122f565b946020939093013593505050565b60008060006060848603121561128a57600080fd5b6112938461122f565b92506112a16020850161122f565b9150604084013590509250925092565b6000602082840312156112c357600080fd5b610b098261122f565b634e487b7160e01b600052604160045260246000fd5b600082601f8301126112f357600080fd5b813567ffffffffffffffff8082111561130e5761130e6112cc565b604051601f8301601f19908116603f01168101908282118183101715611336576113366112cc565b8160405283815286602085880101111561134f57600080fd5b836020870160208301376000602085830101528094505050505092915050565b6000806040838503121561138257600080fd5b82359150602083013567ffffffffffffffff8111156113a057600080fd5b6113ac858286016112e2565b9150509250929050565b6000602082840312156113c857600080fd5b5035919050565b600080604083850312156113e257600080fd5b6113eb8361122f565b9150602083013567ffffffffffffffff8111156113a057600080fd5b6000806040838503121561141a57600080fd5b6114238361122f565b91506114316020840161122f565b90509250929050565b600181811c9082168061144e57607f821691505b60208210810361146e57634e487b7160e01b600052602260045260246000fd5b50919050565b634e487b7160e01b600052601160045260246000fd5b8082018082111561043857610438611474565b8281526040602082015260006114b660408301846111f0565b949350505050565b600181815b808511156114f95781600019048211156114df576114df611474565b808516156114ec57918102915b93841c93908002906114c3565b509250929050565b60008261151057506001610438565b8161151d57506000610438565b8160018114611533576002811461153d57611559565b6001915050610438565b60ff84111561154e5761154e611474565b50506001821b610438565b5060208310610133831016604e8410600b841016171561157c575081810a610438565b61158683836114be565b806000190482111561159a5761159a611474565b029392505050565b6000610b0960ff841683611501565b808202811582820484141761043857610438611474565b70028bab0b634ba3c90383937b23ab1ba1d1607d1b8152600082516115f48160118501602087016111cc565b9190910160110192915050565b60008261161e57634e487b7160e01b600052601260045260246000fd5b50049056fea2646970667358221220f6397a5f73ba4454417398a6a7d167890c1a15300850a35be3ade6c5c350efc564736f6c63430008140033",
  "immutableReferences": {},
  "source": "// SPDX-License-Identifier: MIT\r\npragma solidity ^0.8.19;\r\n\r\nimport \"@openzeppelin/contracts/token/ERC20/ERC20.sol\";\r\nimport \"@openzeppelin/contracts/access/Ownable.sol\";\r\nimport \"@openzeppelin/contracts/security/Pausable.sol\";\r\n\r\n/**\r\n * @title FarmToken\r\n * @dev ERC-20 token for the farming ecosystem\r\n * Farmers can earn tokens through ratings and quality products\r\n * Consumers can spend tokens on products and tools\r\n */\r\ncontract FarmToken is ERC20, Ownable, Pausable {\r\n    \r\n    // Events\r\n    event TokensRewarded(address indexed farmer, uint256 amount, string reason);\r\n    event TokensSpent(address indexed user, uint256 amount, string reason);\r\n    event TokensRedeemed(address indexed user, uint256 amount);\r\n    \r\n    // Mapping to track farmer ratings\r\n    mapping(address => uint256) public farmerRatings;\r\n    \r\n    // Mapping to track total ratings per farmer\r\n    mapping(address => uint256) public farmerTotalRatings;\r\n    \r\n    // Token reward rates\r\n    uint256 public constant RATING_REWARD_RATE = 10; // 10 tokens per star rating\r\n    uint256 public constant PRODUCT_REWARD_RATE = 50; // 50 tokens per quality product\r\n    \r\n    constructor() ERC20(\"FarmToken\", \"FARM\") Ownable() {\r\n        // Initial supply: 1,000,000 tokens\r\n        _mint(msg.sender, 1000000 * 10**decimals());\r\n    }\r\n    \r\n    /**\r\n     * @dev Reward tokens to a farmer based on rating\r\n     * @param farmer Address of the farmer\r\n     * @param rating Rating given (1-5 stars)\r\n     */\r\n    function rewardFarmerForRating(address farmer, uint256 rating) external onlyOwner whenNotPaused {\r\n        require(rating >= 1 && rating <= 5, \"Rating must be between 1 and 5\");\r\n        require(farmer != address(0), \"Invalid farmer address\");\r\n        \r\n        uint256 rewardAmount = rating * RATING_REWARD_RATE * 10**decimals();\r\n        \r\n        // Update farmer rating statistics\r\n        farmerRatings[farmer] += rating;\r\n        farmerTotalRatings[farmer] += 1;\r\n        \r\n        // Transfer tokens to farmer\r\n        _transfer(owner(), farmer, rewardAmount);\r\n        \r\n        emit TokensRewarded(farmer, rewardAmount, \"Rating reward\");\r\n    }\r\n    \r\n    /**\r\n     * @dev Reward tokens to a farmer for quality product\r\n     * @param farmer Address of the farmer\r\n     * @param productName Name of the product\r\n     */\r\n    function rewardFarmerForProduct(address farmer, string memory productName) external onlyOwner whenNotPaused {\r\n        require(farmer != address(0), \"Invalid farmer address\");\r\n        \r\n        uint256 rewardAmount = PRODUCT_REWARD_RATE * 10**decimals();\r\n        \r\n        // Transfer tokens to farmer\r\n        _transfer(owner(), farmer, rewardAmount);\r\n        \r\n        emit TokensRewarded(farmer, rewardAmount, string(abi.encodePacked(\"Quality product: \", productName)));\r\n    }\r\n    \r\n    /**\r\n     * @dev Allow users to spend tokens on products or tools\r\n     * @param amount Amount of tokens to spend\r\n     * @param reason Reason for spending\r\n     */\r\n    function spendTokens(uint256 amount, string memory reason) external whenNotPaused {\r\n        require(amount > 0, \"Amount must be greater than 0\");\r\n        require(balanceOf(msg.sender) >= amount, \"Insufficient token balance\");\r\n        \r\n        // Burn tokens (remove from circulation)\r\n        _burn(msg.sender, amount);\r\n        \r\n        emit TokensSpent(msg.sender, amount, reason);\r\n    }\r\n    \r\n    /**\r\n     * @dev Allow users to redeem tokens for fiat or other rewards\r\n     * @param amount Amount of tokens to redeem\r\n     */\r\n    function redeemTokens(uint256 amount) external whenNotPaused {\r\n        require(amount > 0, \"Amount must be greater than 0\");\r\n        require(balanceOf(msg.sender) >= amount, \"Insufficient token balance\");\r\n        \r\n        // Transfer tokens back to owner (for redemption processing)\r\n        _transfer(msg.sender, owner(), amount);\r\n        \r\n        emit TokensRedeemed(msg.sender, amount);\r\n    }\r\n    \r\n    /**\r\n     * @dev Get average rating for a farmer\r\n     * @param farmer Address of the farmer\r\n     * @return Average rating (0 if no ratings)\r\n     */\r\n    function getFarmerAverageRating(address farmer) external view returns (uint256) {\r\n        uint256 totalRatings = farmerTotalRatings[farmer];\r\n        if (totalRatings == 0) return 0;\r\n        return farmerRatings[farmer] / totalRatings;\r\n    }\r\n    \r\n    /**\r\n     * @dev Pause token transfers (emergency function)\r\n     */\r\n    function pause() external onlyOwner {\r\n        _pause();\r\n    }\r\n    \r\n    /**\r\n     * @dev Unpause token transfers\r\n     */\r\n    function unpause() external onlyOwner {\r\n        _unpause();\r\n    }\r\n    \r\n    /**\r\n     * @dev Override transfer function to check for paused state\r\n     */\r\n    function _beforeTokenTransfer(address from, address to, uint256 amount) internal virtual override {\r\n        super._beforeTokenTransfer(from, to, amount);\r\n        require(!paused(), \"Token transfer paused\");\r\n    }\r\n} ",
  "sourcePath": "C:\\Users\\hp\\Downloads\\complete_Fram2Fork\\project-1\\contracts\\FarmToken.sol",
  "compiler": {
    "name": "solc",
    "version": "0.8.20+commit.a1b79de6.Emscripten.clang"
  },
  "schemaVersion": "3.4.16",
  "updatedAt": "2025-06-25T08:41:04.947Z",
  "networkType": "ethereum",
  "devdoc": {
    "details": "ERC-20 token for the farming ecosystem Farmers can earn tokens through ratings and quality products Consumers can spend tokens on products and tools",
    "events": {
      "Approval(address,address,uint256)": {
        "details": "Emitted when the allowance of a `spender` for an `owner` is set by a call to {approve}. `value` is the new allowance."
      },
      "Paused(address)": {
        "details": "Emitted when the pause is triggered by `account`."
      },
      "Transfer(address,address,uint256)": {
        "details": "Emitted when `value` tokens are moved from one account (`from`) to another (`to`). Note that `value` may be zero."
      },
      "Unpaused(address)": {
        "details": "Emitted when the pause is lifted by `account`."
      }
    },
    "kind": "dev",
    "methods": {
      "allowance(address,address)": {
        "details": "See {IERC20-allowance}."
      },
      "approve(address,uint256)": {
        "details": "See {IERC20-approve}. NOTE: If `amount` is the maximum `uint256`, the allowance is not updated on `transferFrom`. This is semantically equivalent to an infinite approval. Requirements: - `spender` cannot be the zero address."
      },
      "balanceOf(address)": {
        "details": "See {IERC20-balanceOf}."
      },
      "decimals()": {
        "details": "Returns the number of decimals used to get its user representation. For example, if `decimals` equals `2`, a balance of `505` tokens should be displayed to a user as `5.05` (`505 / 10 ** 2`). Tokens usually opt for a value of 18, imitating the relationship between Ether and Wei. This is the default value returned by this function, unless it's overridden. NOTE: This information is only used for _display_ purposes: it in no way affects any of the arithmetic of the contract, including {IERC20-balanceOf} and {IERC20-transfer}."
      },
      "decreaseAllowance(address,uint256)": {
        "details": "Atomically decreases the allowance granted to `spender` by the caller. This is an alternative to {approve} that can be used as a mitigation for problems described in {IERC20-approve}. Emits an {Approval} event indicating the updated allowance. Requirements: - `spender` cannot be the zero address. - `spender` must have allowance for the caller of at least `subtractedValue`."
      },
      "getFarmerAverageRating(address)": {
        "details": "Get average rating for a farmer",
        "params": {
          "farmer": "Address of the farmer"
        },
        "returns": {
          "_0": "Average rating (0 if no ratings)"
        }
      },
      "increaseAllowance(address,uint256)": {
        "details": "Atomically increases the allowance granted to `spender` by the caller. This is an alternative to {approve} that can be used as a mitigation for problems described in {IERC20-approve}. Emits an {Approval} event indicating the updated allowance. Requirements: - `spender` cannot be the zero address."
      },
      "name()": {
        "details": "Returns the name of the token."
      },
      "owner()": {
        "details": "Returns the address of the current owner."
      },
      "pause()": {
        "details": "Pause token transfers (emergency function)"
      },
      "paused()": {
        "details": "Returns true if the contract is paused, and false otherwise."
      },
      "redeemTokens(uint256)": {
        "details": "Allow users to redeem tokens for fiat or other rewards",
        "params": {
          "amount": "Amount of tokens to redeem"
        }
      },
      "renounceOwnership()": {
        "details": "Leaves the contract without owner. It will not be possible to call `onlyOwner` functions. Can only be called by the current owner. NOTE: Renouncing ownership will leave the contract without an owner, thereby disabling any functionality that is only available to the owner."
      },
      "rewardFarmerForProduct(address,string)": {
        "details": "Reward tokens to a farmer for quality product",
        "params": {
          "farmer": "Address of the farmer",
          "productName": "Name of the product"
        }
      },
      "rewardFarmerForRating(address,uint256)": {
        "details": "Reward tokens to a farmer based on rating",
        "params": {
          "farmer": "Address of the farmer",
          "rating": "Rating given (1-5 stars)"
        }
      },
      "spendTokens(uint256,string)": {
        "details": "Allow users to spend tokens on products or tools",
        "params": {
          "amount": "Amount of tokens to spend",
          "reason": "Reason for spending"
        }
      },
      "symbol()": {
        "details": "Returns the symbol of the token, usually a shorter version of the name."
      },
      "totalSupply()": {
        "details": "See {IERC20-totalSupply}."
      },
      "transfer(address,uint256)": {
        "details": "See {IERC20-transfer}. Requirements: - `to` cannot be the zero address. - the caller must have a balance of at least `amount`."
      },
      "transferFrom(address,address,uint256)": {
        "details": "See {IERC20-transferFrom}. Emits an {Approval} event indicating the updated allowance. This is not required by the EIP. See the note at the beginning of {ERC20}. NOTE: Does not update the allowance if the current allowance is the maximum `uint256`. Requirements: - `from` and `to` cannot be the zero address. - `from` must have a balance of at least `amount`. - the caller must have allowance for ``from``'s tokens of at least `amount`."
      },
      "transferOwnership(address)": {
        "details": "Transfers ownership of the contract to a new account (`newOwner`). Can only be called by the current owner."
      },
      "unpause()": {
        "details": "Unpause token transfers"
      }
    },
    "title": "FarmToken",
    "version": 1
  },
  "userdoc": {
    "kind": "user",
    "methods": {},
    "version": 1
  }
}